{
  "contractName": "BattleToken",
  "abi": [
    {
      "inputs": [],
      "stateMutability": "nonpayable",
      "type": "constructor"
    },
    {
      "inputs": [
        {
          "internalType": "address",
          "name": "sender",
          "type": "address"
        },
        {
          "internalType": "uint256",
          "name": "tokenId",
          "type": "uint256"
        },
        {
          "internalType": "address",
          "name": "owner",
          "type": "address"
        }
      ],
      "name": "ERC721IncorrectOwner",
      "type": "error"
    },
    {
      "inputs": [
        {
          "internalType": "address",
          "name": "operator",
          "type": "address"
        },
        {
          "internalType": "uint256",
          "name": "tokenId",
          "type": "uint256"
        }
      ],
      "name": "ERC721InsufficientApproval",
      "type": "error"
    },
    {
      "inputs": [
        {
          "internalType": "address",
          "name": "approver",
          "type": "address"
        }
      ],
      "name": "ERC721InvalidApprover",
      "type": "error"
    },
    {
      "inputs": [
        {
          "internalType": "address",
          "name": "operator",
          "type": "address"
        }
      ],
      "name": "ERC721InvalidOperator",
      "type": "error"
    },
    {
      "inputs": [
        {
          "internalType": "address",
          "name": "owner",
          "type": "address"
        }
      ],
      "name": "ERC721InvalidOwner",
      "type": "error"
    },
    {
      "inputs": [
        {
          "internalType": "address",
          "name": "receiver",
          "type": "address"
        }
      ],
      "name": "ERC721InvalidReceiver",
      "type": "error"
    },
    {
      "inputs": [
        {
          "internalType": "address",
          "name": "sender",
          "type": "address"
        }
      ],
      "name": "ERC721InvalidSender",
      "type": "error"
    },
    {
      "inputs": [
        {
          "internalType": "uint256",
          "name": "tokenId",
          "type": "uint256"
        }
      ],
      "name": "ERC721NonexistentToken",
      "type": "error"
    },
    {
      "anonymous": false,
      "inputs": [
        {
          "indexed": true,
          "internalType": "address",
          "name": "owner",
          "type": "address"
        },
        {
          "indexed": true,
          "internalType": "address",
          "name": "approved",
          "type": "address"
        },
        {
          "indexed": true,
          "internalType": "uint256",
          "name": "tokenId",
          "type": "uint256"
        }
      ],
      "name": "Approval",
      "type": "event"
    },
    {
      "anonymous": false,
      "inputs": [
        {
          "indexed": true,
          "internalType": "address",
          "name": "owner",
          "type": "address"
        },
        {
          "indexed": true,
          "internalType": "address",
          "name": "operator",
          "type": "address"
        },
        {
          "indexed": false,
          "internalType": "bool",
          "name": "approved",
          "type": "bool"
        }
      ],
      "name": "ApprovalForAll",
      "type": "event"
    },
    {
      "anonymous": false,
      "inputs": [
        {
          "indexed": true,
          "internalType": "address",
          "name": "from",
          "type": "address"
        },
        {
          "indexed": true,
          "internalType": "address",
          "name": "to",
          "type": "address"
        },
        {
          "indexed": true,
          "internalType": "uint256",
          "name": "tokenId",
          "type": "uint256"
        }
      ],
      "name": "Transfer",
      "type": "event"
    },
    {
      "inputs": [
        {
          "internalType": "address",
          "name": "to",
          "type": "address"
        },
        {
          "internalType": "uint256",
          "name": "tokenId",
          "type": "uint256"
        }
      ],
      "name": "approve",
      "outputs": [],
      "stateMutability": "nonpayable",
      "type": "function"
    },
    {
      "inputs": [
        {
          "internalType": "address",
          "name": "owner",
          "type": "address"
        }
      ],
      "name": "balanceOf",
      "outputs": [
        {
          "internalType": "uint256",
          "name": "",
          "type": "uint256"
        }
      ],
      "stateMutability": "view",
      "type": "function"
    },
    {
      "inputs": [
        {
          "internalType": "uint256",
          "name": "tokenId",
          "type": "uint256"
        }
      ],
      "name": "getApproved",
      "outputs": [
        {
          "internalType": "address",
          "name": "",
          "type": "address"
        }
      ],
      "stateMutability": "view",
      "type": "function"
    },
    {
      "inputs": [
        {
          "internalType": "address",
          "name": "owner",
          "type": "address"
        },
        {
          "internalType": "address",
          "name": "operator",
          "type": "address"
        }
      ],
      "name": "isApprovedForAll",
      "outputs": [
        {
          "internalType": "bool",
          "name": "",
          "type": "bool"
        }
      ],
      "stateMutability": "view",
      "type": "function"
    },
    {
      "inputs": [],
      "name": "name",
      "outputs": [
        {
          "internalType": "string",
          "name": "",
          "type": "string"
        }
      ],
      "stateMutability": "view",
      "type": "function"
    },
    {
      "inputs": [
        {
          "internalType": "uint256",
          "name": "tokenId",
          "type": "uint256"
        }
      ],
      "name": "ownerOf",
      "outputs": [
        {
          "internalType": "address",
          "name": "",
          "type": "address"
        }
      ],
      "stateMutability": "view",
      "type": "function"
    },
    {
      "inputs": [
        {
          "internalType": "address",
          "name": "from",
          "type": "address"
        },
        {
          "internalType": "address",
          "name": "to",
          "type": "address"
        },
        {
          "internalType": "uint256",
          "name": "tokenId",
          "type": "uint256"
        }
      ],
      "name": "safeTransferFrom",
      "outputs": [],
      "stateMutability": "nonpayable",
      "type": "function"
    },
    {
      "inputs": [
        {
          "internalType": "address",
          "name": "from",
          "type": "address"
        },
        {
          "internalType": "address",
          "name": "to",
          "type": "address"
        },
        {
          "internalType": "uint256",
          "name": "tokenId",
          "type": "uint256"
        },
        {
          "internalType": "bytes",
          "name": "data",
          "type": "bytes"
        }
      ],
      "name": "safeTransferFrom",
      "outputs": [],
      "stateMutability": "nonpayable",
      "type": "function"
    },
    {
      "inputs": [
        {
          "internalType": "address",
          "name": "operator",
          "type": "address"
        },
        {
          "internalType": "bool",
          "name": "approved",
          "type": "bool"
        }
      ],
      "name": "setApprovalForAll",
      "outputs": [],
      "stateMutability": "nonpayable",
      "type": "function"
    },
    {
      "inputs": [
        {
          "internalType": "bytes4",
          "name": "interfaceId",
          "type": "bytes4"
        }
      ],
      "name": "supportsInterface",
      "outputs": [
        {
          "internalType": "bool",
          "name": "",
          "type": "bool"
        }
      ],
      "stateMutability": "view",
      "type": "function"
    },
    {
      "inputs": [],
      "name": "symbol",
      "outputs": [
        {
          "internalType": "string",
          "name": "",
          "type": "string"
        }
      ],
      "stateMutability": "view",
      "type": "function"
    },
    {
      "inputs": [
        {
          "internalType": "uint256",
          "name": "",
          "type": "uint256"
        }
      ],
      "name": "tokenPower",
      "outputs": [
        {
          "internalType": "uint256",
          "name": "",
          "type": "uint256"
        }
      ],
      "stateMutability": "view",
      "type": "function"
    },
    {
      "inputs": [
        {
          "internalType": "uint256",
          "name": "tokenId",
          "type": "uint256"
        }
      ],
      "name": "tokenURI",
      "outputs": [
        {
          "internalType": "string",
          "name": "",
          "type": "string"
        }
      ],
      "stateMutability": "view",
      "type": "function"
    },
    {
      "inputs": [
        {
          "internalType": "address",
          "name": "from",
          "type": "address"
        },
        {
          "internalType": "address",
          "name": "to",
          "type": "address"
        },
        {
          "internalType": "uint256",
          "name": "tokenId",
          "type": "uint256"
        }
      ],
      "name": "transferFrom",
      "outputs": [],
      "stateMutability": "nonpayable",
      "type": "function"
    },
    {
      "inputs": [
        {
          "internalType": "address",
          "name": "to",
          "type": "address"
        }
      ],
      "name": "mint",
      "outputs": [],
      "stateMutability": "nonpayable",
      "type": "function"
    },
    {
      "inputs": [
        {
          "internalType": "uint256",
          "name": "tokenId1",
          "type": "uint256"
        },
        {
          "internalType": "uint256",
          "name": "tokenId2",
          "type": "uint256"
        }
      ],
      "name": "battle",
      "outputs": [],
      "stateMutability": "nonpayable",
      "type": "function"
    }
  ],
  "bytecode": "0x60806040523480156200001157600080fd5b506040518060400160405280600b81526020017f426174746c65546f6b656e0000000000000000000000000000000000000000008152506040518060400160405280600381526020017f42544b000000000000000000000000000000000000000000000000000000000081525081600090816200008f91906200017e565b5060016200009e82826200017e565b5050506200024a565b7f4e487b7100000000000000000000000000000000000000000000000000000000600052604160045260246000fd5b600181811c90821680620000eb57607f821691505b60208210810362000125577f4e487b7100000000000000000000000000000000000000000000000000000000600052602260045260246000fd5b50919050565b601f8211156200017957600081815260208120601f850160051c81016020861015620001545750805b601f850160051c820191505b81811015620001755782815560010162000160565b5050505b505050565b81516001600160401b038111156200019a576200019a620000a7565b620001b281620001ab8454620000d6565b846200012b565b602080601f831160018114620001ea5760008415620001d15750858301515b600019600386901b1c1916600185901b17855562000175565b600085815260208120601f198616915b828110156200021b57888601518255948401946001909101908401620001fa565b50858210156200023a5787850151600019600388901b60f8161c191681555b5050505050600190811b01905550565b6111b8806200025a6000396000f3fe608060405234801561001057600080fd5b50600436106101005760003560e01c80636a62784211610097578063a22cb46511610066578063a22cb4651461022a578063b88d4fde1461023d578063c87b56dd14610250578063e985e9c51461026357600080fd5b80636a627842146101ce57806370a08231146101e157806395d89b41146102025780639fb55e0e1461020a57600080fd5b806323b872dd116100d357806323b872dd146101825780632a0c52211461019557806342842e0e146101a85780636352211e146101bb57600080fd5b806301ffc9a71461010557806306fdde031461012d578063081812fc14610142578063095ea7b31461016d575b600080fd5b610118610113366004610dc3565b610276565b60405190151581526020015b60405180910390f35b6101356102c8565b6040516101249190610e30565b610155610150366004610e43565b61035a565b6040516001600160a01b039091168152602001610124565b61018061017b366004610e78565b610383565b005b610180610190366004610ea2565b610392565b6101806101a3366004610ede565b610422565b6101806101b6366004610ea2565b61051b565b6101556101c9366004610e43565b61053b565b6101806101dc366004610f00565b610546565b6101f46101ef366004610f00565b610582565b604051908152602001610124565b6101356105ca565b6101f4610218366004610e43565b60076020526000908152604090205481565b610180610238366004610f1b565b6105d9565b61018061024b366004610f6d565b6105e4565b61013561025e366004610e43565b6105fb565b610118610271366004611049565b610670565b60006001600160e01b031982166380ac58cd60e01b14806102a757506001600160e01b03198216635b5e139f60e01b145b806102c257506301ffc9a760e01b6001600160e01b03198316145b92915050565b6060600080546102d79061107c565b80601f01602080910402602001604051908101604052809291908181526020018280546103039061107c565b80156103505780601f1061032557610100808354040283529160200191610350565b820191906000526020600020905b81548152906001019060200180831161033357829003601f168201915b5050505050905090565b60006103658261069e565b506000828152600460205260409020546001600160a01b03166102c2565b61038e8282336106d7565b5050565b6001600160a01b0382166103c157604051633250574960e11b8152600060048201526024015b60405180910390fd5b60006103ce8383336106e4565b9050836001600160a01b0316816001600160a01b03161461041c576040516364283d7b60e01b81526001600160a01b03808616600483015260248201849052821660448201526064016103b8565b50505050565b3361042c8361053b565b6001600160a01b0316146104785760405162461bcd60e51b81526020600482015260136024820152724e6f74206f776e6572206f6620746f6b656e3160681b60448201526064016103b8565b336104828261053b565b6001600160a01b0316146104ce5760405162461bcd60e51b81526020600482015260136024820152722737ba1037bbb732b91037b3103a37b5b2b71960691b60448201526064016103b8565b600082815260076020526040808220548383529120546104ec6107dd565b6000858152600760205260409020556105036107dd565b60009384526007602052604090932092909255505050565b610536838383604051806020016040528060008152506105e4565b505050565b60006102c28261069e565b6105506006610825565b600061055b60065490565b90506105678282610842565b61056f6107dd565b6000918252600760205260409091205550565b60006001600160a01b0382166105ae576040516322718ad960e21b8152600060048201526024016103b8565b506001600160a01b031660009081526003602052604090205490565b6060600180546102d79061107c565b61038e3383836108a7565b6105ef848484610392565b61041c84848484610946565b60606106068261069e565b50600061061e60408051602081019091526000815290565b9050600081511161063e5760405180602001604052806000815250610669565b8061064884610a6f565b6040516020016106599291906110b6565b6040516020818303038152906040525b9392505050565b6001600160a01b03918216600090815260056020908152604080832093909416825291909152205460ff1690565b6000818152600260205260408120546001600160a01b0316806102c257604051637e27328960e01b8152600481018490526024016103b8565b6105368383836001610b02565b6000828152600260205260408120546001600160a01b039081169083161561071157610711818486610c08565b6001600160a01b0381161561074f5761072e600085600080610b02565b6001600160a01b038116600090815260036020526040902080546000190190555b6001600160a01b0385161561077e576001600160a01b0385166000908152600360205260409020805460010190555b60008481526002602052604080822080546001600160a01b0319166001600160a01b0389811691821790925591518793918516917fddf252ad1be2c89b69c2b068fc378daa952ba7f163c4a11628f55a4df523b3ef91a4949350505050565b6000606442446040516020016107fd929190918252602082015260400190565b6040516020818303038152906040528051906020012060001c61082091906110e5565b905090565b600181600001600082825461083a9190611107565b909155505050565b6001600160a01b03821661086c57604051633250574960e11b8152600060048201526024016103b8565b600061087a838360006106e4565b90506001600160a01b03811615610536576040516339e3563760e11b8152600060048201526024016103b8565b6001600160a01b0382166108d957604051630b61174360e31b81526001600160a01b03831660048201526024016103b8565b6001600160a01b03838116600081815260056020908152604080832094871680845294825291829020805460ff191686151590811790915591519182527f17307eab39ab6107e8899845ad3d59bd9653f200f220920489ca2b5937696c31910160405180910390a3505050565b6001600160a01b0383163b1561041c57604051630a85bd0160e11b81526001600160a01b0384169063150b7a0290610988903390889087908790600401611128565b6020604051808303816000875af19250505080156109c3575060408051601f3d908101601f191682019092526109c091810190611165565b60015b610a2c573d8080156109f1576040519150601f19603f3d011682016040523d82523d6000602084013e6109f6565b606091505b508051600003610a2457604051633250574960e11b81526001600160a01b03851660048201526024016103b8565b805181602001fd5b6001600160e01b03198116630a85bd0160e11b14610a6857604051633250574960e11b81526001600160a01b03851660048201526024016103b8565b5050505050565b60606000610a7c83610c6c565b600101905060008167ffffffffffffffff811115610a9c57610a9c610f57565b6040519080825280601f01601f191660200182016040528015610ac6576020820181803683370190505b5090508181016020015b600019016f181899199a1a9b1b9c1cb0b131b232b360811b600a86061a8153600a8504945084610ad057509392505050565b8080610b1657506001600160a01b03821615155b15610bd8576000610b268461069e565b90506001600160a01b03831615801590610b525750826001600160a01b0316816001600160a01b031614155b8015610b655750610b638184610670565b155b15610b8e5760405163a9fbf51f60e01b81526001600160a01b03841660048201526024016103b8565b8115610bd65783856001600160a01b0316826001600160a01b03167f8c5be1e5ebec7d5bd14f71427d1e84f3dd0314c0f7b2291e5b200ac8c7c3b92560405160405180910390a45b505b5050600090815260046020526040902080546001600160a01b0319166001600160a01b0392909216919091179055565b610c13838383610d44565b610536576001600160a01b038316610c4157604051637e27328960e01b8152600481018290526024016103b8565b60405163177e802f60e01b81526001600160a01b0383166004820152602481018290526044016103b8565b60008072184f03e93ff9f4daa797ed6e38ed64bf6a1f0160401b8310610cab5772184f03e93ff9f4daa797ed6e38ed64bf6a1f0160401b830492506040015b6d04ee2d6d415b85acef81000000008310610cd7576d04ee2d6d415b85acef8100000000830492506020015b662386f26fc100008310610cf557662386f26fc10000830492506010015b6305f5e1008310610d0d576305f5e100830492506008015b6127108310610d2157612710830492506004015b60648310610d33576064830492506002015b600a83106102c25760010192915050565b60006001600160a01b03831615801590610da25750826001600160a01b0316846001600160a01b03161480610d7e5750610d7e8484610670565b80610da257506000828152600460205260409020546001600160a01b038481169116145b949350505050565b6001600160e01b031981168114610dc057600080fd5b50565b600060208284031215610dd557600080fd5b813561066981610daa565b60005b83811015610dfb578181015183820152602001610de3565b50506000910152565b60008151808452610e1c816020860160208601610de0565b601f01601f19169290920160200192915050565b6020815260006106696020830184610e04565b600060208284031215610e5557600080fd5b5035919050565b80356001600160a01b0381168114610e7357600080fd5b919050565b60008060408385031215610e8b57600080fd5b610e9483610e5c565b946020939093013593505050565b600080600060608486031215610eb757600080fd5b610ec084610e5c565b9250610ece60208501610e5c565b9150604084013590509250925092565b60008060408385031215610ef157600080fd5b50508035926020909101359150565b600060208284031215610f1257600080fd5b61066982610e5c565b60008060408385031215610f2e57600080fd5b610f3783610e5c565b915060208301358015158114610f4c57600080fd5b809150509250929050565b634e487b7160e01b600052604160045260246000fd5b60008060008060808587031215610f8357600080fd5b610f8c85610e5c565b9350610f9a60208601610e5c565b925060408501359150606085013567ffffffffffffffff80821115610fbe57600080fd5b818701915087601f830112610fd257600080fd5b813581811115610fe457610fe4610f57565b604051601f8201601f19908116603f0116810190838211818310171561100c5761100c610f57565b816040528281528a602084870101111561102557600080fd5b82602086016020830137600060208483010152809550505050505092959194509250565b6000806040838503121561105c57600080fd5b61106583610e5c565b915061107360208401610e5c565b90509250929050565b600181811c9082168061109057607f821691505b6020821081036110b057634e487b7160e01b600052602260045260246000fd5b50919050565b600083516110c8818460208801610de0565b8351908301906110dc818360208801610de0565b01949350505050565b60008261110257634e487b7160e01b600052601260045260246000fd5b500690565b808201808211156102c257634e487b7160e01b600052601160045260246000fd5b6001600160a01b038581168252841660208201526040810183905260806060820181905260009061115b90830184610e04565b9695505050505050565b60006020828403121561117757600080fd5b815161066981610daa56fea26469706673582212207a911d80e3c4d806c5a2c9a7e85f5e794fd4c97ba5004efd70200c3493ed9aa164736f6c63430008150033",
  "immutableReferences": {},
  "source": "// SPDX-License-Identifier: MIT\r\npragma solidity ^0.8.0;\r\n\r\nimport \"@openzeppelin/contracts/token/ERC721/ERC721.sol\";\r\nimport \"./SimpleCounter.sol\";\r\n\r\ncontract BattleToken is ERC721 {\r\n    using SimpleCounter for SimpleCounter.Counter;\r\n    SimpleCounter.Counter private _tokenIds;\r\n    mapping(uint256 => uint256) public tokenPower;\r\n\r\n    constructor() ERC721(\"BattleToken\", \"BTK\") {}\r\n\r\n    function mint(address to) external {\r\n        _tokenIds.increment();\r\n        uint256 newTokenId = _tokenIds.current();\r\n        _mint(to, newTokenId);\r\n        tokenPower[newTokenId] = randomPower();\r\n    }\r\n\r\n    function battle(uint256 tokenId1, uint256 tokenId2) external {\r\n        require(ownerOf(tokenId1) == msg.sender, \"Not owner of token1\");\r\n        require(ownerOf(tokenId2) == msg.sender, \"Not owner of token2\");\r\n\r\n        uint256 power1 = tokenPower[tokenId1];\r\n        uint256 power2 = tokenPower[tokenId2];\r\n\r\n        if (power1 > power2) {\r\n            // Handle victory condition\r\n        } else if (power2 > power1) {\r\n            // Handle loss condition\r\n        } else {\r\n            // Handle draw condition\r\n        }\r\n\r\n        tokenPower[tokenId1] = randomPower();\r\n        tokenPower[tokenId2] = randomPower();\r\n    }\r\n\r\n    function randomPower() internal view returns (uint256) {\r\n        return uint256(keccak256(abi.encodePacked(block.timestamp, block.difficulty))) % 100;\r\n    }\r\n}",
  "sourcePath": "C:\\Users\\DANILSON\\Desktop\\w\\workspace\\src\\blockchain\\contracts\\battleToken.sol",
  "compiler": {
    "name": "solc",
    "version": "0.8.21+commit.d9974bed.Emscripten.clang"
  },
  "schemaVersion": "3.4.16",
  "updatedAt": "2024-05-29T10:05:31.565Z",
  "devdoc": {
    "errors": {
      "ERC721IncorrectOwner(address,uint256,address)": [
        {
          "details": "Indicates an error related to the ownership over a particular token. Used in transfers.",
          "params": {
            "owner": "Address of the current owner of a token.",
            "sender": "Address whose tokens are being transferred.",
            "tokenId": "Identifier number of a token."
          }
        }
      ],
      "ERC721InsufficientApproval(address,uint256)": [
        {
          "details": "Indicates a failure with the `operator`s approval. Used in transfers.",
          "params": {
            "operator": "Address that may be allowed to operate on tokens without being their owner.",
            "tokenId": "Identifier number of a token."
          }
        }
      ],
      "ERC721InvalidApprover(address)": [
        {
          "details": "Indicates a failure with the `approver` of a token to be approved. Used in approvals.",
          "params": {
            "approver": "Address initiating an approval operation."
          }
        }
      ],
      "ERC721InvalidOperator(address)": [
        {
          "details": "Indicates a failure with the `operator` to be approved. Used in approvals.",
          "params": {
            "operator": "Address that may be allowed to operate on tokens without being their owner."
          }
        }
      ],
      "ERC721InvalidOwner(address)": [
        {
          "details": "Indicates that an address can't be an owner. For example, `address(0)` is a forbidden owner in EIP-20. Used in balance queries.",
          "params": {
            "owner": "Address of the current owner of a token."
          }
        }
      ],
      "ERC721InvalidReceiver(address)": [
        {
          "details": "Indicates a failure with the token `receiver`. Used in transfers.",
          "params": {
            "receiver": "Address to which tokens are being transferred."
          }
        }
      ],
      "ERC721InvalidSender(address)": [
        {
          "details": "Indicates a failure with the token `sender`. Used in transfers.",
          "params": {
            "sender": "Address whose tokens are being transferred."
          }
        }
      ],
      "ERC721NonexistentToken(uint256)": [
        {
          "details": "Indicates a `tokenId` whose `owner` is the zero address.",
          "params": {
            "tokenId": "Identifier number of a token."
          }
        }
      ]
    },
    "events": {
      "Approval(address,address,uint256)": {
        "details": "Emitted when `owner` enables `approved` to manage the `tokenId` token."
      },
      "ApprovalForAll(address,address,bool)": {
        "details": "Emitted when `owner` enables or disables (`approved`) `operator` to manage all of its assets."
      },
      "Transfer(address,address,uint256)": {
        "details": "Emitted when `tokenId` token is transferred from `from` to `to`."
      }
    },
    "kind": "dev",
    "methods": {
      "approve(address,uint256)": {
        "details": "See {IERC721-approve}."
      },
      "balanceOf(address)": {
        "details": "See {IERC721-balanceOf}."
      },
      "getApproved(uint256)": {
        "details": "See {IERC721-getApproved}."
      },
      "isApprovedForAll(address,address)": {
        "details": "See {IERC721-isApprovedForAll}."
      },
      "name()": {
        "details": "See {IERC721Metadata-name}."
      },
      "ownerOf(uint256)": {
        "details": "See {IERC721-ownerOf}."
      },
      "safeTransferFrom(address,address,uint256)": {
        "details": "See {IERC721-safeTransferFrom}."
      },
      "safeTransferFrom(address,address,uint256,bytes)": {
        "details": "See {IERC721-safeTransferFrom}."
      },
      "setApprovalForAll(address,bool)": {
        "details": "See {IERC721-setApprovalForAll}."
      },
      "supportsInterface(bytes4)": {
        "details": "See {IERC165-supportsInterface}."
      },
      "symbol()": {
        "details": "See {IERC721Metadata-symbol}."
      },
      "tokenURI(uint256)": {
        "details": "See {IERC721Metadata-tokenURI}."
      },
      "transferFrom(address,address,uint256)": {
        "details": "See {IERC721-transferFrom}."
      }
    },
    "version": 1
  },
  "userdoc": {
    "kind": "user",
    "methods": {},
    "version": 1
  }
}